S01100004D6F636B5F70726A312E73726563AD
S11300000070002091050000F9050000F9050000CA
S1130010F9050000F9050000F905000000000000E2
S1130020000000000000000000000000F9050000CE
S1130030F905000000000000F9050000F9050000C2
S1130040F9050000F9050000F9050000F9050000B4
S1130050F9050000F9050000F9050000F9050000A4
S1130060F9050000F9050000F9050000F905000094
S1130070F9050000F9050000F9050000F905000084
S1130080F9050000F9050000DB150000F905000082
S1130090F9050000F9050000F9050000F905000064
S11300A0F9050000F9050000F9050000F905000054
S11300B0F9050000F9050000F9050000911E000093
S11300C0F90500009F1E0000F9050000AD1E0000A8
S11300D0F9050000F9050000F9050000F905000024
S11300E0F9050000F9050000F9050000F905000014
S11300F0F9050000F9050000F9050000F905000004
S1130100F9050000F9050000F9050000F9050000F3
S1130110F9050000F9050000F9050000F9050000E3
S1130120F9050000F9050000F9050000050D0000BF
S1130130130D0000210D00002F0D00003D0D0000E7
S1130140F9050000F9050000F9050000F9050000B3
S1130150F9050000F9050000F9050000F9050000A3
S1130160F9050000F9050000F9050000F905000093
S1130170F9050000F9050000F9050000F905000083
S11303F0F9050000F9050000F9050000FFFFFFFF03
S1130400FFFFFFFFFFFFFFFFFFFFFFFFFE7FFFFF79
S11304100348044B834202D0034B03B1184770478F
S1130420948DFF1F948DFF1F0000000005480649AE
S11304300B1AD90F01EBA301491002D0034B03B1EE
S113044018477047948DFF1F948DFF1F0000000014
S113045010B5064C237843B9FFF7DAFF044B13B108
S11304600448AFF300800123237010BD0000002076
S113047000000000E032000008B5044B1BB1044941
S11304800448AFF30080BDE80840CFE70000000057
S113049004000020E0320000002A01D002F5807A36
S11304A0704700BF162031A1ABBE30484168002917
S11304B001D0364A11600168002901D13249016036
S11304C08168C2682A4B002900D00B469D46FFF77D
S11304D0E3FF00218B460F462648274A121A01F0F3
S11304E0A5FF02F095FA15202649ABBE25490968F7
S11304F0002001B40B780131002B15D0202BF9D04A
S1130500222B01D0272B01D11A0001E0202201392E
S113051002B401300B780131002B05D09A42F9D195
S113052000224B1E1A70E5E76946020092006A44F5
S11305306B469A4206D9043A14681D6815601C601B
S11305400433F6E76C460725AC43A54604000D00CA
S11305500A48002802D00A4801F0E0FF01F042FFF7
S11305602000290000F032FF01F02CFF4084FF1F1F
S11305700070002000000020080C00201D25000051
S1130580F52400005085FF1F300C0020301000209F
S113059072B64FF000014FF000024FF000034FF02D
S11305A000044FF000054FF000064FF00007B84676
S11305B0B946BA46BB46BC460A490B4A521A013AE6
S11305C005DD0020042308601944043AFBDA0748D7
S11305D08546074880470748804762B6FFF762FFB1
S11305E0FEE700000080FF1F007000200070002064
S11305F05907000031060000FFF7FEBF034613F859
S1130600012B002AFBD1181A0138704780B400AFBF
S1130610064B80221A7000BF044B1B78DBB2002B00
S1130620FAD000BF00BFBD4680BC70470000024046
S113063080B48FB000AF394B3B63394B3B62394BCD
S11306407B61394BFB62394BFB61394B3B61394B65
S1130650BB62394BFB60394B7B62394BBB61394B15
S1130660BB6009E03B6A1A783B6B1A703B6B013341
S11306703B633B6A01333B627A693B6A9A42F1D13C
S113068009E0FB691A78FB6A1A70FB6A0133FB62A2
S1130690FB690133FB613A69FB699A42F1D105E0D8
S11306A0BB6A00221A70BB6A0133BB62FA68BB6A78
S11306B09A42F5D109E0BB691A787B6A1A70BB6962
S11306C00133BB617B6A01337B62BA68BB699A42BE
S11306D0F1D10023FB711C4A1C4B9A4216D0002313
S11306E07B630AE0194A7B6B52F8232016497B6B23
S11306F041F823207B6B01337B63154B9B087A6B9A
S11307009A42EFD3134B104A1A6002E0114B0F4A7E
S11307101A6000BF3C37BD4680BC70474084FF1F51
S11307200C330000603C0000948DFF1F603C00000F
S1130730603C000000000020080C002000000020A5
S1130740603C0000603C00000080FF1F00000000CF
S11307500004000008ED00E080B400AF084B094A33
S11307605A60074B5B68064B42F220121A60044B36
S11307704FF6FF729A6000BFBD4680BC704700BF51
S11307800020054020C528D980B584B000AF78602A
S113079039607B689F2B02D96FF006030EE07B68FB
S11307A05B09FB737B68DBB203F01F03BB73B97B8C
S11307B0F87B3B68002200F087FF03461846103799
S11307C0BD4680BD80B584B000AF78600B46FB7039
S11307D07B689F2B02D96FF0060314E07B685B09EA
S11307E0FB737B68DBB203F01F03BB73FB78012B45
S11307F00CBF01230023DBB21A46B97BFB7B1846EE
S113080000F0AEFF034618461037BD4680BD80B5E4
S113081084B000AF78600B46FB707B689F2B02D9D5
S11308206FF0060314E07B685B09FB737B68DBB243
S113083003F01F03BB73FB78012B0CBF01230023C0
S1130840DBB21A46B97BFB7B184600F0C5FF0346B2
S113085018461037BD4680BD80B584B000AF7860BF
S11308600B46FB707B689F2B02D96FF006031BE0DD
S11308707B685B09BB737B68DBB203F01F037B738C
S11308800023FB73FB78012B02D10123FB7304E0EB
S1130890FB78022B01D10223FB73FA7B797BBB7BB0
S11308A0184600F0A9FF034618461037BD4680BD20
S11308B080B584B000AF78600B46FB707B689F2BDB
S11308C002D96FF0060324E07B685B09BB737B6885
S11308D0DBB203F01F037B730023FB73FB78032B52
S11308E00CD0032B0DDC012B02D0022B03D008E02B
S11308F00123FB7306E00223FB7303E00323FB7372
S113090000E000BFFA7B797BBB7B184600F0D6FF82
S1130910034618461037BD4680BD80B584B000AF8D
S1130920786039607B689F2B0FD87B685B09FB7309
S11309307B68DBB203F01F03BB733B68DAB2B97B9D
S1130940FB7B184601F046F800E000BF1037BD46B7
S113095080BD80B584B000AF78607B689F2B01D9DF
S113096000230EE07B685B09FB737B68DBB203F05A
S11309701F03BB73BA7BFB7B1146184601F058F882
S1130980034618461037BD4680BD000080B483B0CE
S113099000AF0346FB71FB7903F01F02064997F988
S11309A007305B09012000FA02F241F8232000BF5E
S11309B00C37BD4680BC704700E100E080B483B0D2
S11309C000AF0346FB71FB7903F01F02074997F957
S11309D007305B09012000FA02F2203341F823209A
S11309E000BF0C37BD4680BC704700BF00E100E08B
S11309F080B483B000AF0346FB71FB7903F01F02A0
S1130A00074997F907305B09012000FA02F26033C5
S1130A1041F8232000BF0C37BD4680BC704700BF9F
S1130A2000E100E080B483B000AF78607B68042B01
S1130A3002D96FF004030CE0084A7B68493352F88A
S1130A40232006497B68493342F0804241F8232041
S1130A50002318460C37BD4680BC70470050064042
S1130A6080B485B000AF78600B46FB707B689F2B29
S1130A7002D96FF004032AE07B685B09FB607B68A2
S1130A8003F01F03BB60144AFB6852F82330BA68B2
S1130A9053F822201049FB6851F8233022F4E06116
S1130AA0BA6843F822100C4AFB6852F82330BA683B
S1130AB053F82210FB781B0203F4E0620648FB683B
S1130AC050F823301143BA6843F822100023184623
S1130AD01437BD4680BC70472432000080B485B012
S1130AE000AF78600B46FB707B689F2B02D96FF0D8
S1130AF004033FE07B685B09FB607B6803F01F0332
S1130B00BB601F4AFB6852F82330BA6853F82220AE
S1130B101B49FB6851F8233022F00301BA6843F8FB
S1130B202210FB78012B02D0022B11D021E0144AB1
S1130B30FB6852F82330BA6853F822201049FB6846
S1130B4051F8233042F00301BA6843F8221010E050
S1130B500B4AFB6852F82330BA6853F8222008493C
S1130B60FB6851F8233042F00201BA6843F82210BE
S1130B7000BF002318461437BD4680BC704700BF31
S1130B802432000080B586B000AFF860B9607A60A6
S1130B90FB689F2B02D96FF0040355E0FB685B09E7
S1130BA07B61FB6803F01F033B612949FB687A689A
S1130BB041F82320274A7B6952F823303A6953F8D5
S1130BC0222024497B6951F8233022F470213A69A8
S1130BD043F822101F4A7B6952F823303A6953F8CC
S1130BE02210BB681B0403F470221A487B6950F876
S1130BF0233011433A6943F822107B69042B21D82E
S1130C0001A252F823F000BF1D0C0000250C0000C7
S1130C102D0C0000350C00003D0C00003B20FFF7BC
S1130C20B5FE10E03C20FFF7B1FE0CE03D20FFF7DD
S1130C30ADFE08E03E20FFF7A9FE04E03F20FFF7E9
S1130C40A5FE00E000BF002318461837BD4680BD4E
S1130C501C0000202432000080B586B000AF78600C
S1130C60254A7B6852F82330D3F8A030FB60002378
S1130C707B6138E0FA687B6922FA03F303F001032D
S1130C80002B2DD07B685B017A691344BB601A4A40
S1130C907B6852F8233001217A6901FA02F2C3F821
S1130CA0A020164ABB6852F82330002B18D0144AEF
S1130CB07B6852F823301A697B6922FA03F303F044
S1130CC00103002B02D00123FB7401E00223FB7417
S1130CD00A4ABB6852F82330FA7C1146B868984730
S1130CE07B6901337B617B691F2BC3D900BF00BFC4
S1130CF01837BD4680BD00BF243200001C00002010
S1130D003832000080B500AF0020FFF7A5FF00BF18
S1130D1080BD80B500AF0120FFF79EFF00BF80BDFE
S1130D2080B500AF0220FFF797FF00BF80BD80B5FC
S1130D3000AF0320FFF790FF00BF80BD80B500AF78
S1130D400420FFF789FF00BF80BD000080B483B09A
S1130D5000AF074B1B687B600023BA8862F30F0364
S1130D60FA8862F31F4318460C37BD4680BC7047AF
S1130D705C32000080B400AF002343F0010343F46D
S1130D80007343F480631846BD4680BC704780B549
S1130D9082B000AF78607968012000F06DFE062112
S1130DA0012000F07FFE012000F0A8FE0023184679
S1130DB00837BD4680BD80B500AF012000F013FFA9
S1130DC00021012000F058FE0023184680BD80B4A5
S1130DD083B000AF0346FB71002318460C37BD46B1
S1130DE080BC704780B582B000AF786039603A68E3
S1130DF07968012000F078FF002318460837BD46C3
S1130E0080BD80B582B000AF786039603A68796897
S1130E10012000F0B5FF002318460837BD4680BD09
S1130E2080B485B000AFF860B9607A606FF00303F6
S1130E3018461437BD4680BC704780B400AF002309
S1130E401846BD4680BC704780B400AF00231846E6
S1130E50BD4680BC704780B584B000AF786039600F
S1130E607B68DBB2FB60FB68012B09D13A687968C7
S1130E70012000F0CFFE012000F090FE002309E0E5
S1130E80FB68152B02D0FB68162B01D1002301E06F
S1130E906FF0030318461037BD4680BD80B483B09D
S1130EA000AF00237B607B6818460C37BD4680BCCE
S1130EB0704780B483B000AF0346FB716FF0030347
S1130EC018460C37BD4680BC704780B483B000AF71
S1130ED000237B607B6818460C37BD4680BC704796
S1130EE090B583B000AF78600C4B5C697868FFF70D
S1130EF085FB034619467868A04700BF074BDB6AA9
S1130F0098470346DBB203F00103DBB2002BF5D1B3
S1130F1000BF00BF0C37BD4690BD00BF603200006B
S1130F2080B586B000AF1848FFF7DAFF4FF42043CE
S1130F301B687B614AF204031B683B617B69B3F164
S1130F40FF3F03D03B69B3F1FF3F03D10F48FFF7E5
S1130F50C7FF15E04FF0E0234FF42042C3F8082DFB
S1130F607B697B607B6883F3088800BF7B69BB6017
S1130F70BB6883F3098800BF3B69FB60FB68984743
S1130F801837BD4680BD00BFD0300000EC300000F3
S1130F9080B500AF244B1B6800209847224B1B6888
S1130FA002209847204B1B68032098471E4B5B6820
S1130FB001216F2098471C4B5B68012170209847E2
S1130FC0194B5B68012160209847184B5B6801212D
S1130FD06F209847154B5B68012170209847134B8D
S1130FE05B680121602098470F4B5B6801214D200D
S1130FF098470E4BDB6801214D2098470B4B5B68EB
S113100000214D209847094B5B6900216F209847C8
S1131010064B5B69002170209847044B5B690021F3
S11310206020984700BF80BD4C32000008320000A9
S113103080B500AF054B9B694D2098470346002BB4
S113104001D1012300E00023184680BD08320000CE
S113105080B582B000AF78607B6803F00203002B98
S113106009D0074B1B78184601F03CF9054B9B69E6
S113107001210348984700BF0837BD4680BD00BF23
S11310809C0200206032000080B500AF01F014F92A
S113109001F056F8084B9B6808489847064B9B6A32
S11310A04FF4165101209847034B9B6901210448D2
S11310B0984700BF80BD00BF60320000511000009F
S11310C09C02002080B5ADF50A7D00AF07F217231E
S11310D0184601F03FF90346002B00F0578197F8BA
S11310E017320A2B15D1B14B1B88002B00F04E810F
S11310F0AE4B1B881A46AE4B00219954AC4B1B785F
S1131100532B02D1AA4801F031F8A84B00221A80CF
S11311103CE1A64B1B88FE2B0BD8A44B1B885A1C06
S113112091B2A24A11801A4697F81712A04B99540B
S11311302CE19E4B00221A8028E107F1080207F5F2
S11311408A731146184600F011FF0346002B40F045
S11311501D8107F50A73A3F5087393F80A31002B70
S113116000F0148107F50A73A3F508731B78012BAB
S11311700ED007F50A73A3F508731B78022B07D06A
S113118007F50A73A3F508731B78032B40F0BE80A0
S113119007F50A73A3F508735B68B3F5204FC0F035
S11311A0B58007F50A73A3F508735B68B3F5002FE0
S11311B080F0AC8007F50A73A3F508735B68C7F881
S11311C0243207F50A73A3F5087393F80831C7F8B6
S11311D0203207F108030833C7F81C3291E0D7F82E
S11311E0243203F00703002B20D1D7F82032042B3C
S11311F01CD1D7F81C321B681A466E4B1A606E4A13
S1131200D7F8243213606D4B01221A70D7F82432B8
S11312100433C7F82432D7F81C320433C7F81C321D
S1131220D7F82032043BC7F820326AE0D7F82432DA
S113123003F00703042B43D1D7F82032032B3FD903
S1131240D7F82432043BC7F818323B460822FF2162
S1131250184601F0EBF8594B1B78002B0CD0564B79
S11312601B68D7F818229A4206D1524B1A6807F520
S11312700A73A3F50A731A60D7F81C321B681A465E
S113128007F50A73A3F50A735A6072B63B4619460A
S1131290D7F8180200F000F962B6484B00221A7021
S11312A0D7F824320433C7F82432D7F81C32043375
S11312B0C7F81C32D7F82032043BC7F8203220E0AC
S11312C0D7F8243203F00703002B1AD1D7F82032C1
S11312D0072B16D972B6D7F81C12D7F8240200F0DF
S11312E0DBF862B6D7F824320833C7F82432D7F8CB
S11312F01C320833C7F81C32D7F82032083BC7F831
S11313002032D7F82032002B7FF469AF07F50A7337
S1131310A3F508731B78072B0DD007F50A73A3F503
S113132008731B78082B06D007F50A73A3F5087316
S11313301B78092B2AD1214B1B78002B18D03B4654
S11313400822FF21184601F071F81A4B1A6807F5B4
S11313500A73A3F50A731A6072B6174B1B683A46F0
S11313601146184600F098F862B6144B00221A7021
S11313701348FFF7B5FD1348FFF7B2FD1248FFF716
S1131380AFFD00F0DDFE094B00221A8007F58A73D9
S1131390184600F03FFF0346002B7FF4CEAE00BF9B
S11313A000BF07F50A77BD4680BD00BFA00300203B
S11313B0A0020020A4030020A8030020AC03002006
S11313C00C310000343100007831000080B500AFEA
S11313D000F00AF900F02EF900F060F9FFF754FE6E
S11313E0FFF7D6FD1248FFF77BFDFFF721FE03460A
S11313F0002B05D10F48FFF773FDFFF791FD13E0B4
S11314000D4B5B690121602098470C48FFF768FD8C
S113141000F018F872B676214FF4204000F0C0F8BE
S113142062B60748FFF75CFDFFF74CFEFCE700BF20
S1131430AC310000B831000008320000CC310000AB
S1131440F831000080B485B000AF104BBB60104B86
S11314507B60104B3B600023FB600CE0FB689B004F
S1131460BA681A44FB689B0079680B4412681A60D6
S1131470FB680133FB60FA683B689A42EED300BF15
S113148000BF1437BD4680BC704700BF0C06000087
S11314900084FF1F0900000080B582B000AF7860AF
S11314A0396000BF254B1B78DBB2002BFAD0234BED
S11314B01B78DBB2802B02D0204B30221A701F4BDA
S11314C00722DA717B681A0C1C4BD2B29A717B68C2
S11314D01A0A1A4BD2B25A71184B7A68D2B21A71DC
S11314E03B680333154A1B78D3723B680233134AB3
S11314F01B7893723B680133104A1B7853720F4A6E
S11315003B681B7813723B6807330C4A1B78D37310
S11315103B680633094A1B7893733B680533074AD3
S11315201B7853733B680433044A1B781373044BCE
S11315309847012318460837BD4680BD0000024085
S11315400184FF1F80B582B000AF786000BF124BEA
S11315501B78DBB2002BFAD00F4B1B78DBB2802B4D
S113156002D00D4B30221A700B4B0922DA717B68C2
S11315701A0C094BD2B29A717B681A0A064BD2B282
S11315805A71054B7A68D2B21A71044B98470123F9
S113159018460837BD4680BD000002400184FF1F85
S11315A080B584B000AF78600B46FB700023FB73FA
S11315B00AE0FB7B1B031A467B6813441846FFF7BB
S11315C0C1FFFB7B0133FB73FA7BFB789A42F0D3B8
S11315D0012318461037BD4680BD80B400AF00BF5C
S11315E0BD4680BC7047000080B400AF104B40F291
S11315F00112C3F804210E4B2422C3F8082100BFB2
S11316000B4BD3F8003103F40003002BF8D1084B43
S11316100122C3F8002100BF054BD3F8003103F0C9
S11316208073002BF8D000BF00BFBD4680BC70475C
S11316300040064080B400AF00BF174BD3F800361B
S113164003F40003002BF8D1134B0022C3F8002647
S1131650114B40F20232C3F804260F4B4FF4C01270
S1131660C3F8082600BF0C4BD3F8003603F400037C
S1131670002BF8D1084B0122C3F8002600BF064B0B
S1131680D3F8003603F08073002BF8D000BF00BFFE
S1131690BD4680BC704700BF0040064080B400AF28
S11316A0074B084A5A6100BF054B1B691B0E03F028
S11316B00F03062BF8D100BF00BFBD4680BC7047A6
S11316C0004006401200010680B584B000AF3B60C4
S11316D00346FB710B46BB7113467B71FB79042BEC
S11316E002D8BB791F2B02D94FF0FF3330E0FB79CE
S11316F05A01BB791344FB601749FB683A6841F807
S11317002320FB79154A52F82330BA7953F8221072
S1131710FB79124A52F82330BA7921F4E06143F894
S11317202210FB790D4A52F82330BA7953F822106B
S1131730FB790A4A52F82330BA7941F4807143F8AC
S113174022107A79B979FB79184600F009F8002358
S113175018461037BD4680BDB0030020AC320000EF
S113176080B483B000AF0346FB710B46BB711346D4
S11317707B71FB79042B02D8BB791F2B02D94FF064
S1131780FF3322E07B79012B0ED1FB79114A52F809
S113179023305969BB7901229A40FB790D4850F8EE
S11317A023300A435A610FE0FB790A4A52F8233086
S11317B05969BB79012202FA03F3DA43FB7905483C
S11317C050F823300A405A61002318460C37BD46AE
S11317D080BC70479832000080B483B000AF0346E9
S11317E0FB710B46BB7113467B71002318460C3703
S11317F0BD4680BC7047000080B483B000AF034690
S1131800FB710B46BB7113467B71FB79042B02D829
S1131810BB791F2B02D94FF0FF3348E0FB79264AEE
S113182052F82330BA7953F82210FB79224A52F83D
S11318302330BA7921F0030143F822107B79012B7C
S113184002D0022B11D031E0FB791B4A52F823302D
S1131850BA7953F82210FB79174A52F82330BA792F
S113186041F0030143F8221020E0FB79124A52F8B8
S11318702330BA7953F82210FB790F4A52F82330F7
S1131880BA7941F0020143F82210FB790A4A52F86E
S11318902330BA7953F82210FB79074A52F82330DF
S11318A0BA7921F0010143F8221000BF0023184641
S11318B00C37BD4680BC7047AC32000080B582B0A6
S11318C000AF0346FB710B46BB7113467B71FB797A
S11318D0042B02D8BB791F2B02D94FF0FF3373E0DE
S11318E0FB793B4A52F82330BA7953F82210FB793A
S11318F0374A52F82330BA7921F4702143F8221080
S11319007B79032B28D0032B37DC012B02D0022B4D
S113191011D032E0FB792E4A52F82330BA7953F8C9
S11319202210FB792A4A52F82330BA7941F4102163
S113193043F8221022E0FB79254A52F82330BA7981
S113194053F82210FB79224A52F82330BA7941F431
S1131950202143F8221011E0FB791D4A52F823306C
S1131960BA7953F82210FB79194A52F82330BA791C
S113197041F4302143F8221000E000BFFB79042B2E
S113198020D801A252F823F09D190000A5190000E7
S1131990AD190000B5190000BD1900003B20FEF789
S11319A0F5FF10E03C20FEF7F1FF0CE03D20FEF7D0
S11319B0EDFF08E03E20FEF7E9FF04E03F20FEF7DC
S11319C0E5FF00E000BF002318460837BD4680BD90
S11319D0AC32000080B483B000AF0346FB710B4609
S11319E0BB7113467B71FB79042B19D8BB791F2B70
S11319F016D87B79002B09D0BA79FB790B4951F8B9
S1131A002330012101FA02F29A600AE0BA79FB79E3
S1131A10064951F82330012101FA02F25A6000E02C
S1131A2000BF0C37BD4680BC704700BF9832000031
S1131A3080B483B000AF03460A46FB711346BB7102
S1131A40FB79042B02D8BB791F2B01D900230BE0AF
S1131A50FB79084A52F823301A69BB7922FA03F356
S1131A60DBB203F00103DBB218460C37BD4680BC81
S1131A70704700BF9832000080B483B000AF0346C3
S1131A803960FB71FB79022B04D8FB7904493A686D
S1131A9041F8232000BF0C37BD4680BC704700BF0F
S1131AA03006002080B483B000AF03460A46FB71C1
S1131AB01346BB71FB79022B19D8BB79072B01D9CB
S1131AC00623BB71BB791B0603F0E0620A49FB796C
S1131AD0002B06D0FB79012B01D16B2302E06C2390
S1131AE000E06A2342F0804241F8232000E000BF76
S1131AF00C37BD4680BC70470050064080B483B0AC
S1131B0000AF0346FB71FB79022B28D0022B37DC94
S1131B10002B02D0012B11D032E01C4BD3F834310E
S1131B201A4A43F08043C2F83431194B4FF44072DF
S1131B301A60174B4FF440725A6022E0134BD3F8EB
S1131B402C31124A43F08043C2F82C31114B4FF42C
S1131B5000729A610F4B4FF40072DA6111E00B4B83
S1131B60D3F83031094A43F08043C2F830310A4B8C
S1131B704FF44072DA63084B4FF440721A6400E089
S1131B8000BF00BF0C37BD4680BC70470050064004
S1131B9000D0044000B0044000C0044080B582B0CE
S1131BA000AF0346FB71FB79002B06D0FB79012BB8
S1131BB001D1212302E0232300E01F231846FEF76E
S1131BC017FFFB79002B06D0FB79012B01D12123D0
S1131BD002E0232300E01F231846FEF7D7FE00BFD0
S1131BE00837BD4680BD80B582B000AF0346FB71A7
S1131BF0FB79002B06D0FB79012B01D1212302E0D4
S1131C00232300E01F231846FEF7D8FE00BF083741
S1131C10BD4680BD80B588B000AF0346B9607A6028
S1131C20FB73FB7B022B53D8FB7B002B06D0FB7B87
S1131C30012B01D1284B02E0284B00E0284BFB612B
S1131C40FB6900229A61274BBB610F237B617B698F
S1131C5001337A6802FB03F35A08BB691A447B69AF
S1131C600133796801FB03F3B2FBF3F33B617B6956
S1131C701B0603F0F8523B69C3F30C031A43FB69D8
S1131C801A61FB694FF430129A61FB695B6943F492
S1131C907022FB695A61FB7B002B06D0FB7B012B76
S1131CA001D1212302E0232300E01F231846FEF77D
S1131CB09FFEFB7B002B06D0FB7B012B01D1212354
S1131CC002E0232300E01F231846FEF75FFE00E036
S1131CD000BF2037BD4680BD00B0064000C00640AE
S1131CE000A00640005A620280B586B000AF0346E9
S1131CF0B9607A60FB73FB7B022B34D8BB68002B82
S1131D0031D07B68002B2ED0FB7B002B06D0FB7BD5
S1131D10012B01D1164B02E0164B00E0164B3B6140
S1131D20BB687B610DE000BF3B695B6903F40003A2
S1131D30002BF9D07B695A1C7A611B781A463B69DF
S1131D40DA617B685A1E7A60002BECD1FB7B0B4A6C
S1131D5052F82330002B07D0FB7B084A52F823307B
S1131D600120984700E000BF1837BD4680BD00BF82
S1131D7000B0064000C0064000A006403006002027
S1131D8080B485B000AF0346B9607A60FB73FB7B17
S1131D90022B10D8BB68002B0DD07B68002B0AD017
S1131DA0FB7B0749BA6841F82320FB7B05497A6825
S1131DB041F8232000E000BF1437BD4680BC7047C3
S1131DC03C0600204806002080B584B000AF0346DE
S1131DD0FB71FB79022B4AD8FB79002B06D0FB79E7
S1131DE0012B01D1244B02E0244B00E0244BFB6087
S1131DF0FB685B69BB60BB6803F40013002B2FD046
S1131E00FB79204A52F82330002B29D0FB791E4A53
S1131E1052F82330002B23D0FB68D969FB79194A87
S1131E2052F82330CAB21A70FB79164A52F82320AA
S1131E300132144941F82320FB79134A52F8232034
S1131E40013A114941F82320FB79104A52F8233012
S1131E50002B05D0FB790D4A52F823300220984715
S1131E60FB685B6943F47022FB685A6100E000BFC1
S1131E701037BD4680BD00BF00B0064000C006401C
S1131E8000A006403C060020480600203006002042
S1131E9080B500AF0020FFF797FF00BF80BD80B57D
S1131EA000AF0120FFF790FF00BF80BD80B500AFF9
S1131EB00220FFF789FF00BF80BD80B485B000AF6A
S1131EC078607B681B787B737B7B2F2B06D97B7BAD
S1131ED0392B03D87B7B303BFB7315E07B7B402B9A
S1131EE006D97B7B462B03D87B7B373BFB730BE00C
S1131EF07B7B602B06D97B7B662B03D87B7B573B94
S1131F00FB7301E000232BE07B685B787B737B7BB6
S1131F102F2B06D97B7B392B03D87B7B303BBB73C0
S1131F2015E07B7B402B06D97B7B462B03D87B7B40
S1131F30373BBB730BE07B7B602B06D97B7B662B2B
S1131F4003D87B7B573BBB7301E0002308E0FB7B9A
S1131F501B015AB297F90E3013435BB23B733B7BC0
S1131F6018461437BD4680BC7047000090B58DB04C
S1131F7000AF786039607B6802331846FFF79DFF35
S1131F800346FB7500233B61002387F82B307B68F5
S1131F901B78532B02D04FF0FF33CCE07B68013326
S1131FA01B78303BFB60FB68DAB23B681A70FB6855
S1131FB0092B20D801A252F823F000BFE51F00002E
S1131FC0E51F0000EB1F0000F11F0000F71F0000D9
S1131FD0E51F0000F71F0000F11F0000EB1F0000C9
S1131FE0E51F00000223FB6208E00323FB6205E017
S1131FF00423FB6202E06FF001039CE03B680022D3
S11320005A6000237B6212E03B685B681C027B6AB7
S11320105B0004337A6813441846FFF74EFF034607
S113202044EA03023B685A607B6A01337B627A6A42
S1132030FB6A9A42E8DBFA7DFB6AD31A013BBB6078
S1132040BB68DAB23B6883F80821FB6A02335B00A1
S11320503B6100233B6214E03B6A5B001A463B6928
S113206013447A6813441846FFF727FF03461946BA
S11320703A683B6A134408330A461A703B6A0133D0
S11320803B623A6ABB689A42E6DBBB685B001A466D
S11320903B6913447A6813441846FFF70EFF03465E
S11320A01A463B6883F80921FB7D87F82B3004230B
S11320B03B610023FB6111E03A69FB6913447A68D0
S11320C013441846FFF7F9FE03461A4697F82B30D7
S11320D0134487F82B30FB690233FB61FB6A5B0016
S11320E0FA699A42E8DB0023BB610CE03A68BB69F9
S11320F0134408331A7897F82B30134487F82B309D
S1132100BB690133BB61BA69BB689A42EEDB3B68C9
S113211093F8092197F82B30134487F82B3097F85C
S11321202B30FF2B0CBF01230023DBB21A463B6884
S113213083F80A21002318463437BD4690BD00BFFA
S113214080B400AF0022064B11461970054B1146AE
S11321501970054B1A7000BFBD4680BC704700BFA4
S1132160560A0020550A0020540A002090B484B076
S113217000AF78600023FB73234B1B78DBB2032B87
S11321803BD80023BB8111E0BB897A681A441F4BFA
S11321901B78DBB21C46BB8910781D4922020A4415
S11321A0134402461A70BB890133BB81BB897A6828
S11321B013441B78002B02D0BB89FE2BE4D9134BAC
S11321C01B78DBB21A46BB89114912020A44134434
S11321D000221A700D4B1B78DBB20133DBB203F023
S11321E00303DAB2094B1A70074B1B78DBB20133D5
S11321F0DAB2054B1A700123FB73FB7B18461037C8
S1132200BD4690BC704700BF560A0020540A002007
S11322105406002090B484B000AF78600023FB73B0
S1132220224B1B78DBB2002B3AD00023BB8110E099
S11322301F4B1B78DBB21C46BA89BB8979680B44F7
S11322401C48210201440A4412781A70BB890133E4
S1132250BB81174B1B78DBB21A46BB8915491202A6
S11322600A4413441B78002B02D0BB89FE2BDFD910
S1132270BB897A68134400221A700D4B1B78DBB2B9
S11322800133DBB203F00303DAB2094B1A70074BD4
S11322901B78DBB2013BDAB2044B1A700123FB73E7
S11322A0FB7B18461037BD4690BC7047560A002089
S11322B0550A00205406002080B400AF0022064BCB
S11322C011461980054B11461980054B1A8000BF31
S11322D0BD4680BC704700BF240B0020220B0020A9
S11322E0200B002080B483B000AF0346FB71154B74
S11322F01B889BB2C72B01D900231DE0124B1B88FE
S11323009BB21946114AFB7953540F4B1B889BB25D
S11323105A1C0F4BA3FB02139B09C82101FB03F3B7
S1132320D31A9AB2084B1A80064B1B889BB201330E
S11323309AB2044B1A80012318460C37BD4680BC60
S1132340704700BF240B0020200B0020580A0020F7
S11323501F85EB5180B483B000AF7860154B1B88A8
S11323609BB2002B01D100231EE0134B1B889BB2B0
S11323701A46124B9A5C7B681A700F4B1B889BB2EF
S11323805A1C0F4BA3FB02139B09C82101FB03F347
S1132390D31A9AB2084B1A80064B1B889BB2013B96
S11323A09AB2044B1A80012318460C37BD4680BCF0
S11323B0704700BF240B0020220B0020580A002085
S11323C01F85EB5108B50021044600F041F8044B89
S11323D01868C36B03B19847204600F079FB00BF2F
S11323E0C032000070B50D4D0D4C641BA4100026C6
S11323F0A64209D10B4D0C4C00F072FF641BA410D3
S11324000026A64205D170BD55F8043B9847013615
S1132410EEE755F8043B98470136F2E70033000035
S11324200033000000330000083300000244034678
S1132430934200D1704703F8011BF9E7024B13B133
S1132440024800F06BB8704700000000F52400005B
S11324502DE9F74F264B1B68019307460E464FF0B4
S1132460000A019BD3F8485155B16C6804F1FF3858
S1132470013405EB84044FF00109B8F1000F02DACE
S113248003B0BDE8F08F3EB1D4F80021B24203D0CE
S113249008F1FF38043CF0E76968226801394145D6
S11324A00CBFC5F80480C4F800A0002AF0D0D5F809
S11324B08811D5F804B009FA08FC1CEA010F09D107
S11324C090476968019B5945D3F84821C9D1954281
S11324D0DED0C6E7D5F88C01D4F880101CEA000FD2
S11324E002D138469047ECE708469047E9E700BF39
S11324F0C032000038B5074D074C641BA4101CB94A
S1132500BDE8384000F0F2BE013C55F8243098474D
S1132510F5E700BF083300000C3300000023014638
S11325201A46184600F000B8F0B5174C2568D5F8DF
S113253048411CB905F5A674C5F8484165681F2DC6
S11325401EDCB0B104EB85070228C7F88820D4F854
S113255088614FF0010202FA05F246EA0206C4F865
S11325608861C7F8083102BFD4F88C311343C4F82A
S11325708C316B1C0235636044F825100020F0BDDB
S11325804FF0FF30FBE700BFC03200000A4B10B52C
S11325900446186818B1836B0BB900F0E7FA132CE2
S11325A007D8064850F83420013202D000EBC400AA
S11325B010BD0020FCE700BF5885FF1F380B00202A
S11325C0F8B5044600F0A2FA132605460027304663
S11325D03946ABBE06462E602046F8BD431C01D1E9
S11325E0FFF7EEBF704730B585B0CDE90101039226
S11325F0062401AD20462946ABBE04462046FFF71B
S1132600EDFF05B030BD70B50E461546FFF7BEFFB1
S1132610044630B900F07AFA092303604FF0FF3022
S113262070BD00682A463146FFF7DDFF431C1FBF1B
S11326306368281A1B186360F2E7F7B50C46164660
S1132640FFF7A4FF054640B900F060FA09230360D0
S11326504FF0FF34204603B0F0BD022E03D900F042
S113266055FA1623F3E7012E12D14368E418F6D481
S11326702B680A26CDE900346F4630463946ABBE96
S113268006463046FFF7AAFF0028E1DB6C60E1E76D
S1132690022EEDD1036800930C266F46304639466E
S11326A0ABBE06463046FFF799FF431CD0D0044426
S11326B0DEE7FFF7C2BF30B585B0CDE90101039273
S11326C0052401AD20462946ABBE04462046FFF74B
S11326D085FF05B030BD70B50E461546FFF756FFB1
S11326E0044630B900F012FA092303604FF0FF30BA
S11326F070BD00682A463146FFF7DDFF031EF5DB97
S11327006268E81A0244AB426260F1D1BDE87040ED
S11327100020FFF755BF37B50224019001AD2046D4
S11327202946ABBE04462046FFF758FF03B030BD30
S113273038B50546FFF72AFF044630B900F0E6F93C
S1132740092303604FF0FF3038BD013D012D09D846
S1132750094B9A681B699A4204D14FF0FF33036016
S11327600020F1E72068FFF7D6FF0028ECD14FF0F6
S1132770FF332360E8E700BF380B00200D4A1168DF
S113278010B5034609B90C49116010686946034441
S11327908B4206D809490A4C0968A14208D08B42E9
S11327A006D900F0B3F90C2303604FF0FF3010BDDD
S11327B01360FCE7280B0020300C00207889FF1FF1
S11327C0ADDEFECA70B50C46FFF7E0FE054630B933
S11327D000F09CF9092303604FF0FF3070BD63687B
S11327E043F4005363604FF48063A3640C263046C3
S11327F02946ABBE05462846FFF7F0FE431C1CBF26
S113280020610020EAE738B50D460446582200212D
S11328102846FFF70BFE2046002100F011F8431C68
S113282004460BD06B6843F401436B602946FFF701
S1132830C9FF05462046FFF77BFF2C46204638BDDE
S11328402DE9F043DFF8A88097B007460E4600252F
S113285058F83540611C37D00135142DF8D100F0FB
S113286055F9182303604FF0FF343DE0C6F30044EC
S113287040F20163B20748BF44F002041E4218BF8D
S113288044F00404330748BF24F00404384648BF26
S113289044F008040097FDF7B1FECDE9014001249E
S11328A020464946ABBE0446002C08DB48F83540B8
S11328B008EBC5080023C8F804302C4614E0204671
S11328C0FFF77EFE04460FE006F42063B3F5206FA5
S11328D0E946CBD149463846FFF795FF0130C5D0CC
S11328E000F014F911230360204617B0BDE8F0830B
S11328F0380B00202DE9F74306460F462A480021ED
S11329001546FFF79DFF2A46044600213046FFF78F
S11329108DFD631C16D02046FFF738FE4FF00C08DF
S1132920814640464946ABBE80464046FFF756FEC8
S1132930032802DDC31EAB4208DC2046FFF7F8FE85
S11329404FF0FF34204603B0BDE8F08304220DEBC2
S113295002012046FFF757FE0328EEDD9DF8043000
S1132960532BEAD19DF80530482BE6D19DF806306B
S1132970462BE2D19DF80730422BDED101223946A5
S11329802046FFF75AFE0028D7DB2A463146204668
S1132990FFF739FE05462046FFF7CAFE2846FFF733
S11329A01DFE0446CEE700BFC432000037B50A4D11
S11329B00A4C0021012201A829602260FFF79AFF36
S11329C0002807DD9DF8043003F0010203F0020340
S11329D02A60236003B030BD7C89FF1F8089FF1FFC
S11329E010B5044C2368002B01DAFFF7DFFF2068E1
S11329F010BD00BF7C89FF1F10B5044C2368002B59
S1132A0001DAFFF7D3FF206810BD00BF8089FF1FE4
S1132A102DE9F04F85B0DFF8A490CDF8049003239E
S1132A200024039301AF0294012528463946ABBE26
S1132A300546DFF88C802346224CC8F800504FF03E
S1132A40FF3244F833200133142BFAD1FFF7D4FFBB
S1132A501D4DD0B14FF0030A0423CDF80490012694
S1132A60CDF80CA0029330463946ABBE8346174BD3
S1132A70CDF80490C3F800B00823CDF80CA002935D
S1132A8030463946ABBE06462E602B68013302BF82
S1132A900E4B1B682B600026D8F80030236066605C
S1132AA0FFF7AAFF30B1094B1B68C4E902362B6853
S1132AB0C4E9043605B0BDE8F08F00BFDA32000087
S1132AC0300B0020380B00202C0B0020340B00208E
S1132AD0014608B5024A4FF0FF3000F003F800BF8A
S1132AE02600020007B5CDE90021FFF779FF002891
S1132AF014BF20241824FFF773FF20B16D4620462D
S1132B002946ABBE0446009DF9E70000014B186856
S1132B10704700BF5885FF1F002310B50446C0E965
S1132B200033C0E90433836081810366C281836119
S1132B30194608225830FFF779FC054B2362054BF0
S1132B406362054BA362054BE461E36210BD00BF01
S1132B50152C0000372C00006F2C0000932C000073
S1132B60014900F025B800BFE12C0000826B10B5CC
S1132B700446D2B90D4BC3630323C0F8E43200F515
S1132B803B73C0F8E832C0F8E02204214068FFF744
S1132B90C3FFA06801220921FFF7BEFFE0680222FB
S1132BA01221FFF7B9FF0123A36310BD612B0000BD
S1132BB02DE9F8430646884600F538740027D4E921
S1132BC00195B9F1010905D52468002CF7D13846DF
S1132BD0BDE8F883AB89012B07D9B5F90E30013371
S1132BE003D029463046C04707436435E9E77047B8
S1132BF07047000038B5064D0023044608462B6094
S1132C00FFF7BCFD431C02D12B6803B1236038BD20
S1132C10040C002010B50C46B1F90E1000F046FA71
S1132C200028ABBF236DA3891B1823F48053ACBFCA
S1132C302365A38110BD2DE9F0411F468B89DB0577
S1132C4005460C46164605D5B1F90E10022300229E
S1132C5000F01AFAA389B4F90E1023F48053A38167
S1132C6032463B462846BDE8F04100F017B810B59F
S1132C700C46B1F90E1000F007FA431CA38915BFE6
S1132C80206523F4805343F48053A38118BFA381A8
S1132C9010BDB1F90E1000F013B8000038B5074D9F
S1132CA004460846114600222A601A46FFF713FD1F
S1132CB0431C02D12B6803B1236038BD040C0020EF
S1132CC038B5064D0023044608462B60FFF730FD57
S1132CD0431C02D12B6803B1236038BD040C0020CF
S1132CE070B505460C4611B90026304670BD18B1C2
S1132CF0836B0BB9FFF73AFFB4F90C30002BF3D018
S1132D002146284600F026F8E36A064633B1E16915
S1132D10284698470028B8BF4FF0FF36A3891B0602
S1132D2003D52169284600F0EFF8216B41B104F185
S1132D304003994202D0284600F0E6F800232363BA
S1132D40616C21B1284600F0DFF80023636400239E
S1132D50A381CAE7F8B58B89B1F90C200546180799
S1132D600C465ED44B6842F40062002B8A8104DC7A
S1132D70CB6B002B01DC0020F8BDA66A002EFAD034
S1132D80002312F480522F682B6036D0206DA38963
S1132D905A0705D56368C01A236B0BB1E36BC01ADD
S1132DA000230246A66AE1692846B047431CA3896A
S1132DB006D129681D2930D82A4ACA40D6072CD5FD
S1132DC023F400631BB200226260D9042269A38148
S1132DD0226004D5421C01D12B6803B92065216B04
S1132DE02F600029C7D004F14003994202D028463D
S1132DF000F08AF800202063BEE7E1690123284639
S1132E00B047411CC3D12B68002BC0D01D2B01D06F
S1132E10162B01D12F60AEE7A38943F04003A381B1
S1132E20AAE70F69002FA6D09B070E6808BF4B695D
S1132E300F6018BF0023F61B8B60002E9BDDE16939
S1132E40D4F824C033463A462846E047002806DC36
S1132E50A38943F04003A3814FF0FF308CE707447C
S1132E60361AEAE701004020F8B5244F0C4606461E
S1132E70FFF7BDFEBB685D68C4F57E6425F00305FD
S1132E800F342C4424F47F6424F00F04A4F58054FC
S1132E90B4F5805F04DA3046FFF7AAFE0020F8BDDF
S1132EA000213046FFF7A6FEBB682B449842F2D1BE
S1132EB061423046FFF79EFE013010D100213046BA
S1132EC0FFF798FEBA68831A0F2BE4DD0C490968F2
S1132ED0401A0C4943F0010308605360DBE7BB6808
S1132EE0084A2D1B45F001055D60136830461B1B25
S1132EF01360FFF77DFE0120D1E700BF8489FF1F27
S1132F008C8DFF1FD80B0020F8B505460F4600290D
S1132F1000F0B180FFF76BFE57F8042C564822F0FE
S1132F200104A7F1080303EB040C8168DCF80460D6
S1132F30614526F0030602F001021BD134443AB97C
S1132F4057F8082C9B1A1444D3E90212CA60916002
S1132F5044F001025A608360484B1B68A34204D8C2
S1132F60474B28461968FFF77FFF2846BDE8F8401D
S1132F70FFF73EBECCF80460002A38D157F8081C8D
S1132F805B1A0C44996800F10807B94231D0DF6834
S1132F90CF60B9600CEB06014968C9070BD4DCF8B3
S1132FA0081034443ABB374EB14224D1C0E904334B
S1132FB0C3E90211012244F0010159601C51002AA5
S1132FC0D3D1B4F5007F1BD26109E20801248C40FF
S1132FD0416801320C43446000EBC20150F83240B6
S1132FE00839C3E9024140F83230E360BDE700220A
S1132FF0D0E70122CEE7DCF80C60CE60B160DAE7FE
S1133000B4F5206F4FEA542214D2A2093832511C6D
S113301000EBC20650F831108E4225D101249210E3
S113302004FA02F2446822434260C3E90216B36020
S1133030CB609AE7142A01D85B32E8E7542A02D815
S1133040220B6E32E3E7B2F5AA7F02D8E20B7732A5
S1133050DDE740F254518A429ABFA20C7C327E22B0
S1133060D5E789688E4204D04A6822F00302A2425E
S1133070F7D8CE68D9E7F8BD8489FF1F908DFF1F6C
S1133080000C00208C89FF1F38B5074D0446084604
S1133090114600222A601A46FFF70BFB431C02D19B
S11330A02B6803B1236038BD040C002038B5074DEC
S11330B004460846114600222A601A46FFF7A3FA7E
S11330C0431C02D12B6803B1236038BD040C0020DB
S11330D05B424F4F545D204A756D70696E67207472
S11330E06F204150502E2E2E0D0A00005B424F4F90
S11330F0545D204552524F523A20415050206E6F39
S1133100742076616C6964210D0A00000D0A5B4924
S11331104E464F5D20466C6173682070726F677213
S1133120616D6D696E6720636F6D706C6574656445
S11331302E0D0A005B494E464F5D20506C6561734D
S1133140652052455345542074686520626F61724E
S11331506420574954484F555420707265737369FD
S11331606E672074686520424F4F542062757474F2
S11331706F6E2E0D0A0000005B494E464F5D2054D1
S11331806865206E6577206170706C69636174692D
S11331906F6E2077696C6C2072756E206166746541
S11331A0722072657365742E0D0A0000424F4F54ED
S11331B02052454144590A00427574746F6E206E62
S11331C06F7420707265737365640A005B424F4FBD
S11331D0545D20506C656173652073656E64205581
S11331E05345522041505020535245432066696C48
S11331F0652E2E2E0D0A00005B464C4153485D207F
S113320052656164790D0A0089070000C507000052
S11332100F08000059080000B10800001B09000055
S1133220530900000090044000A0044000B0044092
S113323000C0044000D0044000F00F4040F00F40B4
S113324080F00F40C0F00F4000F10F40250A00004D
S1133250610A0000DD0A0000850B00000402000181
S11332604D0D0000750D00008F0D0000B70D00001E
S1133270CF0D0000E50D0000030E0000210E00003C
S11332803B0E0000490E0000570E00009D0E00008A
S1133290B30E0000CB0E000000F00F4040F00F40D2
S11332A080F00F40C0F00F4000F10F400090044048
S11332B000A0044000B0044000C0044000D004401A
S11332C06085FF1F3A73656D69686F7374696E6713
S11332D02D6665617475726573003A74740000003C
S11332E0F8B500BFF8BC08BC9E467047F8B500BFEF
S10B32F0F8BC08BC9E467047BF
S10B32F8A0D1FF7F01000000DA
S10B33003D24000079040000E3
S10733085104000068
S113330C00000000000000000000000000000000AD
S113331C000000000000000000000000000000009D
S113332C000000000000000000000000000000008D
S113333C000000000000000000000000000000007D
S113334C000000000000000000000000000000006D
S113335C000000000000000000000000000000005D
S113336C000000000000000000000000000000004D
S113337C000000000000000000000000000000003D
S113338C000000000000000000000000000000002D
S113339C000000000000000000000000000000001D
S11333AC000000000000000000000000000000000D
S11333BC00000000000000000000000000000000FD
S11333CC00000000000000000000000000000000ED
S11333DC00000000000000000000000000000000DD
S11333EC00000000000000000000000000000000CD
S11333FC00000000000000000000000000000000BD
S113340C00000000000000000000000000000000AC
S113341C5084FF1FFF0000006085FF1F00000000A8
S113342C000000004C88FF1FB088FF1F1489FF1F89
S113343C000000000000000000000000000000007C
S113344C000000000000000000000000000000006C
S113345C000000000000000000000000000000005C
S113346C000000000000000000000000000000004C
S113347C000000000000000000000000000000003C
S113348C000000000000000000000000000000002C
S113349C000000000000000000000000000000001C
S11334AC000000000000000000000000000000000C
S11334BC00000000000000000000000000000000FC
S11334CC00000000000000000100000000000000EB
S11334DC0E33CDAB34126DE6ECDE05000B000000B0
S11334EC00000000000000000000000000000000CC
S11334FC00000000000000000000000000000000BC
S113350C00000000000000000000000000000000AB
S113351C000000000000000000000000000000009B
S113383C0000000000000000ADDEFECAFFFFFFFF29
S113384CFFFFFFFF00000000000000008489FF1F41
S113385C8489FF1F8C89FF1F8C89FF1F9489FF1F8C
S113386C9489FF1F9C89FF1F9C89FF1FA489FF1F3C
S113387CA489FF1FAC89FF1FAC89FF1FB489FF1FEC
S113388CB489FF1FBC89FF1FBC89FF1FC489FF1F9C
S113389CC489FF1FCC89FF1FCC89FF1FD489FF1F4C
S11338ACD489FF1FDC89FF1FDC89FF1FE489FF1FFC
S11338BCE489FF1FEC89FF1FEC89FF1FF489FF1FAC
S11338CCF489FF1FFC89FF1FFC89FF1F048AFF1F5B
S11338DC048AFF1F0C8AFF1F0C8AFF1F148AFF1F08
S11338EC148AFF1F1C8AFF1F1C8AFF1F248AFF1FB8
S11338FC248AFF1F2C8AFF1F2C8AFF1F348AFF1F68
S113390C348AFF1F3C8AFF1F3C8AFF1F448AFF1F17
S113391C448AFF1F4C8AFF1F4C8AFF1F548AFF1FC7
S113392C548AFF1F5C8AFF1F5C8AFF1F648AFF1F77
S113393C648AFF1F6C8AFF1F6C8AFF1F748AFF1F27
S113394C748AFF1F7C8AFF1F7C8AFF1F848AFF1FD7
S113395C848AFF1F8C8AFF1F8C8AFF1F948AFF1F87
S113396C948AFF1F9C8AFF1F9C8AFF1FA48AFF1F37
S113397CA48AFF1FAC8AFF1FAC8AFF1FB48AFF1FE7
S113398CB48AFF1FBC8AFF1FBC8AFF1FC48AFF1F97
S113399CC48AFF1FCC8AFF1FCC8AFF1FD48AFF1F47
S11339ACD48AFF1FDC8AFF1FDC8AFF1FE48AFF1FF7
S11339BCE48AFF1FEC8AFF1FEC8AFF1FF48AFF1FA7
S11339CCF48AFF1FFC8AFF1FFC8AFF1F048BFF1F56
S11339DC048BFF1F0C8BFF1F0C8BFF1F148BFF1F03
S11339EC148BFF1F1C8BFF1F1C8BFF1F248BFF1FB3
S11339FC248BFF1F2C8BFF1F2C8BFF1F348BFF1F63
S1133A0C348BFF1F3C8BFF1F3C8BFF1F448BFF1F12
S1133A1C448BFF1F4C8BFF1F4C8BFF1F548BFF1FC2
S1133A2C548BFF1F5C8BFF1F5C8BFF1F648BFF1F72
S1133A3C648BFF1F6C8BFF1F6C8BFF1F748BFF1F22
S1133A4C748BFF1F7C8BFF1F7C8BFF1F848BFF1FD2
S1133A5C848BFF1F8C8BFF1F8C8BFF1F948BFF1F82
S1133A6C948BFF1F9C8BFF1F9C8BFF1FA48BFF1F32
S1133A7CA48BFF1FAC8BFF1FAC8BFF1FB48BFF1FE2
S1133A8CB48BFF1FBC8BFF1FBC8BFF1FC48BFF1F92
S1133A9CC48BFF1FCC8BFF1FCC8BFF1FD48BFF1F42
S1133AACD48BFF1FDC8BFF1FDC8BFF1FE48BFF1FF2
S1133ABCE48BFF1FEC8BFF1FEC8BFF1FF48BFF1FA2
S1133ACCF48BFF1FFC8BFF1FFC8BFF1F048CFF1F51
S1133ADC048CFF1F0C8CFF1F0C8CFF1F148CFF1FFE
S1133AEC148CFF1F1C8CFF1F1C8CFF1F248CFF1FAE
S1133AFC248CFF1F2C8CFF1F2C8CFF1F348CFF1F5E
S1133B0C348CFF1F3C8CFF1F3C8CFF1F448CFF1F0D
S1133B1C448CFF1F4C8CFF1F4C8CFF1F548CFF1FBD
S1133B2C548CFF1F5C8CFF1F5C8CFF1F648CFF1F6D
S1133B3C648CFF1F6C8CFF1F6C8CFF1F748CFF1F1D
S1133B4C748CFF1F7C8CFF1F7C8CFF1F848CFF1FCD
S1133B5C848CFF1F8C8CFF1F8C8CFF1F948CFF1F7D
S1133B6C948CFF1F9C8CFF1F9C8CFF1FA48CFF1F2D
S1133B7CA48CFF1FAC8CFF1FAC8CFF1FB48CFF1FDD
S1133B8CB48CFF1FBC8CFF1FBC8CFF1FC48CFF1F8D
S1133B9CC48CFF1FCC8CFF1FCC8CFF1FD48CFF1F3D
S1133BACD48CFF1FDC8CFF1FDC8CFF1FE48CFF1FED
S1133BBCE48CFF1FEC8CFF1FEC8CFF1FF48CFF1F9D
S1133BCCF48CFF1FFC8CFF1FFC8CFF1F048DFF1F4C
S1133BDC048DFF1F0C8DFF1F0C8DFF1F148DFF1FF9
S1133BEC148DFF1F1C8DFF1F1C8DFF1F248DFF1FA9
S1133BFC248DFF1F2C8DFF1F2C8DFF1F348DFF1F59
S1133C0C348DFF1F3C8DFF1F3C8DFF1F448DFF1F08
S1133C1C448DFF1F4C8DFF1F4C8DFF1F548DFF1FB8
S1133C2C548DFF1F5C8DFF1F5C8DFF1F648DFF1F68
S1133C3C648DFF1F6C8DFF1F6C8DFF1F748DFF1F18
S1133C4C748DFF1F7C8DFF1F7C8DFF1FFFFFFFFFFB
S1073C5C000002005E
S903059166
